{
  "abi": [
    {
      "inputs": [],
      "stateMutability": "payable",
      "type": "constructor"
    },
    {
      "anonymous": false,
      "inputs": [
        {
          "indexed": true,
          "internalType": "address",
          "name": "from",
          "type": "address"
        },
        {
          "indexed": false,
          "internalType": "uint256",
          "name": "timestamp",
          "type": "uint256"
        },
        {
          "indexed": false,
          "internalType": "string",
          "name": "message",
          "type": "string"
        },
        {
          "indexed": false,
          "internalType": "string",
          "name": "name",
          "type": "string"
        },
        {
          "indexed": false,
          "internalType": "string",
          "name": "image",
          "type": "string"
        }
      ],
      "name": "newAdd",
      "type": "event"
    },
    {
      "inputs": [],
      "name": "getAdds",
      "outputs": [
        {
          "components": [
            {
              "internalType": "uint256",
              "name": "timestamp",
              "type": "uint256"
            },
            {
              "internalType": "string",
              "name": "name",
              "type": "string"
            },
            {
              "internalType": "string",
              "name": "message",
              "type": "string"
            },
            {
              "internalType": "string",
              "name": "image",
              "type": "string"
            },
            {
              "internalType": "address",
              "name": "sender",
              "type": "address"
            }
          ],
          "internalType": "struct MyContract.Add[]",
          "name": "",
          "type": "tuple[]"
        }
      ],
      "stateMutability": "view",
      "type": "function"
    },
    {
      "inputs": [],
      "name": "getTottalAdds",
      "outputs": [
        {
          "internalType": "uint256",
          "name": "",
          "type": "uint256"
        }
      ],
      "stateMutability": "view",
      "type": "function"
    },
    {
      "inputs": [],
      "name": "owner",
      "outputs": [
        {
          "internalType": "address payable",
          "name": "",
          "type": "address"
        }
      ],
      "stateMutability": "view",
      "type": "function"
    },
    {
      "inputs": [
        {
          "internalType": "string",
          "name": "_message",
          "type": "string"
        },
        {
          "internalType": "string",
          "name": "_name",
          "type": "string"
        },
        {
          "internalType": "string",
          "name": "_image",
          "type": "string"
        }
      ],
      "name": "placeAdd",
      "outputs": [],
      "stateMutability": "payable",
      "type": "function"
    },
    {
      "inputs": [],
      "name": "totalAds",
      "outputs": [
        {
          "internalType": "uint256",
          "name": "",
          "type": "uint256"
        }
      ],
      "stateMutability": "view",
      "type": "function"
    }
  ],
  "devdoc": {
    "kind": "dev",
    "methods": {},
    "version": 1
  },
  "evm": {
    "assembly": "    /* \"Contract.sol\":64:1267  contract MyContract {... */\n  mstore(0x40, 0x80)\n    /* \"Contract.sol\":186:191  owner */\n  0x01\n    /* \"Contract.sol\":186:213  owner = payable(msg.sender) */\n  dup1\n  sload\n  not(sub(shl(0xa0, 0x01), 0x01))\n  and\n    /* \"Contract.sol\":202:212  msg.sender */\n  caller\n    /* \"Contract.sol\":186:213  owner = payable(msg.sender) */\n  or\n  swap1\n  sstore\n    /* \"Contract.sol\":64:1267  contract MyContract {... */\n  dataSize(sub_0)\n  dup1\n  dataOffset(sub_0)\n  0x00\n  codecopy\n  0x00\n  return\nstop\n\nsub_0: assembly {\n        /* \"Contract.sol\":64:1267  contract MyContract {... */\n      mstore(0x40, 0x80)\n      jumpi(tag_1, lt(calldatasize, 0x04))\n      shr(0xe0, calldataload(0x00))\n      dup1\n      0xae613705\n      gt\n      tag_7\n      jumpi\n      dup1\n      0xae613705\n      eq\n      tag_4\n      jumpi\n      dup1\n      0xc356d568\n      eq\n      tag_5\n      jumpi\n      dup1\n      0xf65bcfd6\n      eq\n      tag_6\n      jumpi\n      0x00\n      dup1\n      revert\n    tag_7:\n      dup1\n      0x8da5cb5b\n      eq\n      tag_2\n      jumpi\n      dup1\n      0x97b116aa\n      eq\n      tag_3\n      jumpi\n    tag_1:\n      0x00\n      dup1\n      revert\n        /* \"Contract.sol\":119:147  address payable public owner */\n    tag_2:\n      callvalue\n      dup1\n      iszero\n      tag_8\n      jumpi\n      0x00\n      dup1\n      revert\n    tag_8:\n      pop\n      sload(0x01)\n      tag_9\n      swap1\n      sub(shl(0xa0, 0x01), 0x01)\n      and\n      dup2\n      jump\n    tag_9:\n      mload(0x40)\n      sub(shl(0xa0, 0x01), 0x01)\n        /* \"#utility.yul\":194:249   */\n      swap1\n      swap2\n      and\n        /* \"#utility.yul\":176:250   */\n      dup2\n      mstore\n        /* \"#utility.yul\":164:166   */\n      0x20\n        /* \"#utility.yul\":149:167   */\n      add\n        /* \"Contract.sol\":119:147  address payable public owner */\n    tag_11:\n      mload(0x40)\n      dup1\n      swap2\n      sub\n      swap1\n      return\n        /* \"Contract.sol\":715:1265  function placeAdd(... */\n    tag_3:\n      tag_13\n      tag_14\n      calldatasize\n      0x04\n      tag_15\n      jump\t// in\n    tag_14:\n      tag_16\n      jump\t// in\n    tag_13:\n      stop\n        /* \"Contract.sol\":534:616  function getAdds() public view returns (Add[] memory) {... */\n    tag_4:\n      callvalue\n      dup1\n      iszero\n      tag_17\n      jumpi\n      0x00\n      dup1\n      revert\n    tag_17:\n      pop\n      tag_18\n      tag_19\n      jump\t// in\n    tag_18:\n      mload(0x40)\n      tag_11\n      swap2\n      swap1\n      tag_21\n      jump\t// in\n        /* \"Contract.sol\":622:709  function getTottalAdds() public view returns (uint256) {... */\n    tag_5:\n      callvalue\n      dup1\n      iszero\n      tag_22\n      jumpi\n      0x00\n      dup1\n      revert\n    tag_22:\n      pop\n        /* \"Contract.sol\":668:675  uint256 */\n      0x00\n        /* \"Contract.sol\":694:702  totalAds */\n      sload\n        /* \"Contract.sol\":622:709  function getTottalAdds() public view returns (uint256) {... */\n    tag_23:\n      mload(0x40)\n        /* \"#utility.yul\":4083:4108   */\n      swap1\n      dup2\n      mstore\n        /* \"#utility.yul\":4071:4073   */\n      0x20\n        /* \"#utility.yul\":4056:4074   */\n      add\n        /* \"Contract.sol\":622:709  function getTottalAdds() public view returns (uint256) {... */\n      tag_11\n        /* \"#utility.yul\":3937:4114   */\n      jump\n        /* \"Contract.sol\":90:113  uint256 public totalAds */\n    tag_6:\n      callvalue\n      dup1\n      iszero\n      tag_27\n      jumpi\n      0x00\n      dup1\n      revert\n    tag_27:\n      pop\n      tag_23\n      sload(0x00)\n      dup2\n      jump\n        /* \"Contract.sol\":715:1265  function placeAdd(... */\n    tag_16:\n        /* \"Contract.sol\":876:885  msg.value */\n      callvalue\n        /* \"Contract.sol\":889:902  0.00001 ether */\n      0x09184e72a000\n        /* \"Contract.sol\":876:902  msg.value == 0.00001 ether */\n      eq\n        /* \"Contract.sol\":855:967  require(... */\n      tag_32\n      jumpi\n      mload(0x40)\n      shl(0xe5, 0x461bcd)\n      dup2\n      mstore\n        /* \"#utility.yul\":4321:4323   */\n      0x20\n        /* \"Contract.sol\":855:967  require(... */\n      0x04\n      dup3\n      add\n        /* \"#utility.yul\":4303:4324   */\n      mstore\n        /* \"#utility.yul\":4360:4362   */\n      0x27\n        /* \"#utility.yul\":4340:4358   */\n      0x24\n      dup3\n      add\n        /* \"#utility.yul\":4333:4363   */\n      mstore\n        /* \"#utility.yul\":4399:4433   */\n      0x596f75206861766520746f2070617920302e303120657468657220746f20706c\n        /* \"#utility.yul\":4379:4397   */\n      0x44\n      dup3\n      add\n        /* \"#utility.yul\":4372:4434   */\n      mstore\n        /* \"#utility.yul\":4470:4479   */\n      0x6163652061646400000000000000000000000000000000000000000000000000\n        /* \"#utility.yul\":4450:4468   */\n      0x64\n      dup3\n      add\n        /* \"#utility.yul\":4443:4480   */\n      mstore\n        /* \"#utility.yul\":4497:4516   */\n      0x84\n      add\n        /* \"Contract.sol\":855:967  require(... */\n    tag_33:\n      mload(0x40)\n      dup1\n      swap2\n      sub\n      swap1\n      revert\n    tag_32:\n        /* \"Contract.sol\":990:991  1 */\n      0x01\n        /* \"Contract.sol\":978:986  totalAds */\n      0x00\n      dup1\n        /* \"Contract.sol\":978:991  totalAds += 1 */\n      dup3\n      dup3\n      sload\n      tag_35\n      swap2\n      swap1\n      tag_36\n      jump\t// in\n    tag_35:\n      swap1\n      swap2\n      sstore\n      pop\n      pop\n        /* \"Contract.sol\":1011:1068  Add(block.timestamp, _name, _message, _image, msg.sender) */\n      0x40\n      dup1\n      mload\n      0xa0\n      dup2\n      add\n      dup3\n      mstore\n        /* \"Contract.sol\":1015:1030  block.timestamp */\n      timestamp\n        /* \"Contract.sol\":1011:1068  Add(block.timestamp, _name, _message, _image, msg.sender) */\n      dup2\n      mstore\n      0x20\n      dup1\n      dup3\n      add\n      dup6\n      dup2\n      mstore\n      swap3\n      dup3\n      add\n      dup7\n      swap1\n      mstore\n      0x60\n      dup3\n      add\n      dup5\n      swap1\n      mstore\n        /* \"Contract.sol\":1057:1067  msg.sender */\n      caller\n        /* \"Contract.sol\":1011:1068  Add(block.timestamp, _name, _message, _image, msg.sender) */\n      0x80\n      dup4\n      add\n      mstore\n        /* \"Contract.sol\":1001:1005  adds */\n      0x02\n        /* \"Contract.sol\":1001:1069  adds.push(Add(block.timestamp, _name, _message, _image, msg.sender)) */\n      dup1\n      sload\n      0x01\n      dup2\n      add\n      dup3\n      sstore\n      0x00\n      swap2\n      swap1\n      swap2\n      mstore\n      dup3\n      mload\n      0x05\n      swap1\n      swap2\n      mul\n      0x405787fa12a823e0f2b7631cc41b3ba8828b3321ca811111fa75cd3aa3bb5ace\n      dup2\n      add\n      swap2\n      dup3\n      sstore\n      swap4\n      mload\n      dup1\n      mload\n        /* \"Contract.sol\":1011:1068  Add(block.timestamp, _name, _message, _image, msg.sender) */\n      swap4\n      swap5\n        /* \"Contract.sol\":1001:1069  adds.push(Add(block.timestamp, _name, _message, _image, msg.sender)) */\n      swap2\n      swap4\n      tag_38\n      swap4\n      0x405787fa12a823e0f2b7631cc41b3ba8828b3321ca811111fa75cd3aa3bb5acf\n      swap1\n      swap4\n      add\n      swap3\n      swap2\n      swap1\n      swap2\n      add\n      swap1\n      tag_39\n      jump\t// in\n    tag_38:\n      pop\n      0x40\n      dup3\n      add\n      mload\n      dup1\n      mload\n      tag_40\n      swap2\n      0x02\n      dup5\n      add\n      swap2\n      0x20\n      swap1\n      swap2\n      add\n      swap1\n      tag_39\n      jump\t// in\n    tag_40:\n      pop\n      0x60\n      dup3\n      add\n      mload\n      dup1\n      mload\n      tag_41\n      swap2\n      0x03\n      dup5\n      add\n      swap2\n      0x20\n      swap1\n      swap2\n      add\n      swap1\n      tag_39\n      jump\t// in\n    tag_41:\n      pop\n      0x80\n      swap2\n      swap1\n      swap2\n      add\n      mload\n      0x04\n      swap1\n      swap2\n      add\n      dup1\n      sload\n      0xffffffffffffffffffffffff0000000000000000000000000000000000000000\n      and\n      sub(shl(0xa0, 0x01), 0x01)\n      swap3\n      dup4\n      and\n      or\n      swap1\n      sstore\n      0x01\n        /* \"Contract.sol\":1099:1104  owner */\n      sload\n        /* \"Contract.sol\":1099:1131  owner.call{value: msg.value}(\"\") */\n      mload(0x40)\n      0x00\n      swap3\n        /* \"Contract.sol\":1099:1104  owner */\n      swap2\n      swap1\n      swap2\n      and\n      swap1\n        /* \"Contract.sol\":1117:1126  msg.value */\n      callvalue\n      swap1\n      dup4\n        /* \"Contract.sol\":1099:1131  owner.call{value: msg.value}(\"\") */\n      dup2\n      dup2\n      dup2\n        /* \"Contract.sol\":1117:1126  msg.value */\n      dup6\n        /* \"Contract.sol\":1099:1104  owner */\n      dup8\n        /* \"Contract.sol\":1099:1131  owner.call{value: msg.value}(\"\") */\n      gas\n      call\n      swap3\n      pop\n      pop\n      pop\n      returndatasize\n      dup1\n      0x00\n      dup2\n      eq\n      tag_46\n      jumpi\n      mload(0x40)\n      swap2\n      pop\n      and(add(returndatasize, 0x3f), not(0x1f))\n      dup3\n      add\n      0x40\n      mstore\n      returndatasize\n      dup3\n      mstore\n      returndatasize\n      0x00\n      0x20\n      dup5\n      add\n      returndatacopy\n      jump(tag_45)\n    tag_46:\n      0x60\n      swap2\n      pop\n    tag_45:\n      pop\n        /* \"Contract.sol\":1080:1131  (bool success, ) = owner.call{value: msg.value}(\"\") */\n      pop\n      swap1\n      pop\n        /* \"Contract.sol\":1149:1156  success */\n      dup1\n        /* \"Contract.sol\":1141:1182  require(success, \"Failed to pay for add\") */\n      tag_47\n      jumpi\n      mload(0x40)\n      shl(0xe5, 0x461bcd)\n      dup2\n      mstore\n        /* \"#utility.yul\":5169:5171   */\n      0x20\n        /* \"Contract.sol\":1141:1182  require(success, \"Failed to pay for add\") */\n      0x04\n      dup3\n      add\n        /* \"#utility.yul\":5151:5172   */\n      mstore\n        /* \"#utility.yul\":5208:5210   */\n      0x15\n        /* \"#utility.yul\":5188:5206   */\n      0x24\n      dup3\n      add\n        /* \"#utility.yul\":5181:5211   */\n      mstore\n        /* \"#utility.yul\":5247:5270   */\n      0x4661696c656420746f2070617920666f72206164640000000000000000000000\n        /* \"#utility.yul\":5227:5245   */\n      0x44\n      dup3\n      add\n        /* \"#utility.yul\":5220:5271   */\n      mstore\n        /* \"#utility.yul\":5288:5306   */\n      0x64\n      add\n        /* \"Contract.sol\":1141:1182  require(success, \"Failed to pay for add\") */\n      tag_33\n        /* \"#utility.yul\":4967:5312   */\n      jump\n        /* \"Contract.sol\":1141:1182  require(success, \"Failed to pay for add\") */\n    tag_47:\n        /* \"Contract.sol\":1205:1215  msg.sender */\n      caller\n      sub(shl(0xa0, 0x01), 0x01)\n        /* \"Contract.sol\":1198:1258  newAdd(msg.sender, block.timestamp, _message, _name, _image) */\n      and\n      0xc1b504acc91ef26c45194965a61ec574decd67e5ef7826d718f190ded3a19921\n        /* \"Contract.sol\":1217:1232  block.timestamp */\n      timestamp\n        /* \"Contract.sol\":1234:1242  _message */\n      dup7\n        /* \"Contract.sol\":1244:1249  _name */\n      dup7\n        /* \"Contract.sol\":1251:1257  _image */\n      dup7\n        /* \"Contract.sol\":1198:1258  newAdd(msg.sender, block.timestamp, _message, _name, _image) */\n      mload(0x40)\n      tag_50\n      swap5\n      swap4\n      swap3\n      swap2\n      swap1\n      tag_51\n      jump\t// in\n    tag_50:\n      mload(0x40)\n      dup1\n      swap2\n      sub\n      swap1\n      log2\n        /* \"Contract.sol\":845:1265  {... */\n      pop\n        /* \"Contract.sol\":715:1265  function placeAdd(... */\n      pop\n      pop\n      pop\n      jump\t// out\n        /* \"Contract.sol\":534:616  function getAdds() public view returns (Add[] memory) {... */\n    tag_19:\n        /* \"Contract.sol\":574:586  Add[] memory */\n      0x60\n        /* \"Contract.sol\":605:609  adds */\n      0x02\n        /* \"Contract.sol\":598:609  return adds */\n      dup1\n      sload\n      dup1\n      0x20\n      mul\n      0x20\n      add\n      mload(0x40)\n      swap1\n      dup2\n      add\n      0x40\n      mstore\n      dup1\n      swap3\n      swap2\n      swap1\n      dup2\n      dup2\n      mstore\n      0x20\n      add\n      0x00\n      swap1\n    tag_53:\n      dup3\n      dup3\n      lt\n      iszero\n      tag_54\n      jumpi\n      dup4\n      dup3\n      swap1\n      0x00\n      mstore\n      keccak256(0x00, 0x20)\n      swap1\n      0x05\n      mul\n      add\n      mload(0x40)\n      dup1\n      0xa0\n      add\n      0x40\n      mstore\n      swap1\n      dup2\n      0x00\n      dup3\n      add\n      sload\n      dup2\n      mstore\n      0x20\n      add\n      0x01\n      dup3\n      add\n      dup1\n      sload\n      tag_56\n      swap1\n      tag_57\n      jump\t// in\n    tag_56:\n      dup1\n      0x1f\n      add\n      0x20\n      dup1\n      swap2\n      div\n      mul\n      0x20\n      add\n      mload(0x40)\n      swap1\n      dup2\n      add\n      0x40\n      mstore\n      dup1\n      swap3\n      swap2\n      swap1\n      dup2\n      dup2\n      mstore\n      0x20\n      add\n      dup3\n      dup1\n      sload\n      tag_58\n      swap1\n      tag_57\n      jump\t// in\n    tag_58:\n      dup1\n      iszero\n      tag_59\n      jumpi\n      dup1\n      0x1f\n      lt\n      tag_60\n      jumpi\n      0x0100\n      dup1\n      dup4\n      sload\n      div\n      mul\n      dup4\n      mstore\n      swap2\n      0x20\n      add\n      swap2\n      jump(tag_59)\n    tag_60:\n      dup3\n      add\n      swap2\n      swap1\n      0x00\n      mstore\n      keccak256(0x00, 0x20)\n      swap1\n    tag_61:\n      dup2\n      sload\n      dup2\n      mstore\n      swap1\n      0x01\n      add\n      swap1\n      0x20\n      add\n      dup1\n      dup4\n      gt\n      tag_61\n      jumpi\n      dup3\n      swap1\n      sub\n      0x1f\n      and\n      dup3\n      add\n      swap2\n    tag_59:\n      pop\n      pop\n      pop\n      pop\n      pop\n      dup2\n      mstore\n      0x20\n      add\n      0x02\n      dup3\n      add\n      dup1\n      sload\n      tag_62\n      swap1\n      tag_57\n      jump\t// in\n    tag_62:\n      dup1\n      0x1f\n      add\n      0x20\n      dup1\n      swap2\n      div\n      mul\n      0x20\n      add\n      mload(0x40)\n      swap1\n      dup2\n      add\n      0x40\n      mstore\n      dup1\n      swap3\n      swap2\n      swap1\n      dup2\n      dup2\n      mstore\n      0x20\n      add\n      dup3\n      dup1\n      sload\n      tag_63\n      swap1\n      tag_57\n      jump\t// in\n    tag_63:\n      dup1\n      iszero\n      tag_64\n      jumpi\n      dup1\n      0x1f\n      lt\n      tag_65\n      jumpi\n      0x0100\n      dup1\n      dup4\n      sload\n      div\n      mul\n      dup4\n      mstore\n      swap2\n      0x20\n      add\n      swap2\n      jump(tag_64)\n    tag_65:\n      dup3\n      add\n      swap2\n      swap1\n      0x00\n      mstore\n      keccak256(0x00, 0x20)\n      swap1\n    tag_66:\n      dup2\n      sload\n      dup2\n      mstore\n      swap1\n      0x01\n      add\n      swap1\n      0x20\n      add\n      dup1\n      dup4\n      gt\n      tag_66\n      jumpi\n      dup3\n      swap1\n      sub\n      0x1f\n      and\n      dup3\n      add\n      swap2\n    tag_64:\n      pop\n      pop\n      pop\n      pop\n      pop\n      dup2\n      mstore\n      0x20\n      add\n      0x03\n      dup3\n      add\n      dup1\n      sload\n      tag_67\n      swap1\n      tag_57\n      jump\t// in\n    tag_67:\n      dup1\n      0x1f\n      add\n      0x20\n      dup1\n      swap2\n      div\n      mul\n      0x20\n      add\n      mload(0x40)\n      swap1\n      dup2\n      add\n      0x40\n      mstore\n      dup1\n      swap3\n      swap2\n      swap1\n      dup2\n      dup2\n      mstore\n      0x20\n      add\n      dup3\n      dup1\n      sload\n      tag_68\n      swap1\n      tag_57\n      jump\t// in\n    tag_68:\n      dup1\n      iszero\n      tag_69\n      jumpi\n      dup1\n      0x1f\n      lt\n      tag_70\n      jumpi\n      0x0100\n      dup1\n      dup4\n      sload\n      div\n      mul\n      dup4\n      mstore\n      swap2\n      0x20\n      add\n      swap2\n      jump(tag_69)\n    tag_70:\n      dup3\n      add\n      swap2\n      swap1\n      0x00\n      mstore\n      keccak256(0x00, 0x20)\n      swap1\n    tag_71:\n      dup2\n      sload\n      dup2\n      mstore\n      swap1\n      0x01\n      add\n      swap1\n      0x20\n      add\n      dup1\n      dup4\n      gt\n      tag_71\n      jumpi\n      dup3\n      swap1\n      sub\n      0x1f\n      and\n      dup3\n      add\n      swap2\n    tag_69:\n      pop\n      pop\n      pop\n      swap2\n      dup4\n      mstore\n      pop\n      pop\n      0x04\n      swap2\n      swap1\n      swap2\n      add\n      sload\n      sub(shl(0xa0, 0x01), 0x01)\n      and\n      0x20\n      swap2\n      dup3\n      add\n      mstore\n      swap1\n      dup3\n      mstore\n      0x01\n      swap3\n      swap1\n      swap3\n      add\n      swap2\n      add\n      jump(tag_53)\n    tag_54:\n      pop\n      pop\n      pop\n      pop\n      swap1\n      pop\n        /* \"Contract.sol\":534:616  function getAdds() public view returns (Add[] memory) {... */\n      swap1\n      jump\t// out\n    tag_39:\n      dup3\n      dup1\n      sload\n      tag_73\n      swap1\n      tag_57\n      jump\t// in\n    tag_73:\n      swap1\n      0x00\n      mstore\n      keccak256(0x00, 0x20)\n      swap1\n      0x1f\n      add\n      0x20\n      swap1\n      div\n      dup2\n      add\n      swap3\n      dup3\n      tag_75\n      jumpi\n      0x00\n      dup6\n      sstore\n      jump(tag_78)\n    tag_75:\n      dup3\n      0x1f\n      lt\n      tag_76\n      jumpi\n      dup1\n      mload\n      not(0xff)\n      and\n      dup4\n      dup1\n      add\n      or\n      dup6\n      sstore\n      jump(tag_78)\n    tag_76:\n      dup3\n      dup1\n      add\n      0x01\n      add\n      dup6\n      sstore\n      dup3\n      iszero\n      tag_78\n      jumpi\n      swap2\n      dup3\n      add\n    tag_77:\n      dup3\n      dup2\n      gt\n      iszero\n      tag_78\n      jumpi\n      dup3\n      mload\n      dup3\n      sstore\n      swap2\n      0x20\n      add\n      swap2\n      swap1\n      0x01\n      add\n      swap1\n      jump(tag_77)\n    tag_78:\n      pop\n      tag_79\n      swap3\n      swap2\n      pop\n      tag_80\n      jump\t// in\n    tag_79:\n      pop\n      swap1\n      jump\t// out\n    tag_80:\n    tag_81:\n      dup1\n      dup3\n      gt\n      iszero\n      tag_79\n      jumpi\n      0x00\n      dup2\n      sstore\n      0x01\n      add\n      jump(tag_81)\n        /* \"#utility.yul\":261:388   */\n    tag_83:\n        /* \"#utility.yul\":322:332   */\n      0x4e487b71\n        /* \"#utility.yul\":317:320   */\n      0xe0\n        /* \"#utility.yul\":313:333   */\n      shl\n        /* \"#utility.yul\":310:311   */\n      0x00\n        /* \"#utility.yul\":303:334   */\n      mstore\n        /* \"#utility.yul\":353:357   */\n      0x41\n        /* \"#utility.yul\":350:351   */\n      0x04\n        /* \"#utility.yul\":343:358   */\n      mstore\n        /* \"#utility.yul\":377:381   */\n      0x24\n        /* \"#utility.yul\":374:375   */\n      0x00\n        /* \"#utility.yul\":367:382   */\n      revert\n        /* \"#utility.yul\":393:1112   */\n    tag_84:\n        /* \"#utility.yul\":436:441   */\n      0x00\n        /* \"#utility.yul\":489:492   */\n      dup3\n        /* \"#utility.yul\":482:486   */\n      0x1f\n        /* \"#utility.yul\":474:480   */\n      dup4\n        /* \"#utility.yul\":470:487   */\n      add\n        /* \"#utility.yul\":466:493   */\n      slt\n        /* \"#utility.yul\":456:511   */\n      tag_90\n      jumpi\n        /* \"#utility.yul\":507:508   */\n      0x00\n        /* \"#utility.yul\":504:505   */\n      dup1\n        /* \"#utility.yul\":497:509   */\n      revert\n        /* \"#utility.yul\":456:511   */\n    tag_90:\n        /* \"#utility.yul\":543:549   */\n      dup2\n        /* \"#utility.yul\":530:550   */\n      calldataload\n        /* \"#utility.yul\":569:587   */\n      0xffffffffffffffff\n        /* \"#utility.yul\":606:608   */\n      dup1\n        /* \"#utility.yul\":602:604   */\n      dup3\n        /* \"#utility.yul\":599:609   */\n      gt\n        /* \"#utility.yul\":596:632   */\n      iszero\n      tag_92\n      jumpi\n        /* \"#utility.yul\":612:630   */\n      tag_92\n      tag_83\n      jump\t// in\n    tag_92:\n        /* \"#utility.yul\":687:689   */\n      0x40\n        /* \"#utility.yul\":681:690   */\n      mload\n        /* \"#utility.yul\":655:657   */\n      0x1f\n        /* \"#utility.yul\":741:754   */\n      dup4\n      add\n      not(0x1f)\n        /* \"#utility.yul\":737:759   */\n      swap1\n      dup2\n      and\n        /* \"#utility.yul\":761:763   */\n      0x3f\n        /* \"#utility.yul\":733:764   */\n      add\n        /* \"#utility.yul\":729:769   */\n      and\n        /* \"#utility.yul\":717:770   */\n      dup2\n      add\n      swap1\n        /* \"#utility.yul\":785:803   */\n      dup3\n      dup3\n      gt\n        /* \"#utility.yul\":805:827   */\n      dup2\n      dup4\n      lt\n        /* \"#utility.yul\":782:828   */\n      or\n        /* \"#utility.yul\":779:851   */\n      iszero\n      tag_94\n      jumpi\n        /* \"#utility.yul\":831:849   */\n      tag_94\n      tag_83\n      jump\t// in\n    tag_94:\n        /* \"#utility.yul\":871:881   */\n      dup2\n        /* \"#utility.yul\":867:869   */\n      0x40\n        /* \"#utility.yul\":860:882   */\n      mstore\n        /* \"#utility.yul\":906:908   */\n      dup4\n        /* \"#utility.yul\":898:904   */\n      dup2\n        /* \"#utility.yul\":891:909   */\n      mstore\n        /* \"#utility.yul\":952:955   */\n      dup7\n        /* \"#utility.yul\":945:949   */\n      0x20\n        /* \"#utility.yul\":940:942   */\n      dup6\n        /* \"#utility.yul\":932:938   */\n      dup9\n        /* \"#utility.yul\":928:943   */\n      add\n        /* \"#utility.yul\":924:950   */\n      add\n        /* \"#utility.yul\":921:956   */\n      gt\n        /* \"#utility.yul\":918:973   */\n      iszero\n      tag_95\n      jumpi\n        /* \"#utility.yul\":969:970   */\n      0x00\n        /* \"#utility.yul\":966:967   */\n      dup1\n        /* \"#utility.yul\":959:971   */\n      revert\n        /* \"#utility.yul\":918:973   */\n    tag_95:\n        /* \"#utility.yul\":1033:1035   */\n      dup4\n        /* \"#utility.yul\":1026:1030   */\n      0x20\n        /* \"#utility.yul\":1018:1024   */\n      dup8\n        /* \"#utility.yul\":1014:1031   */\n      add\n        /* \"#utility.yul\":1007:1011   */\n      0x20\n        /* \"#utility.yul\":999:1005   */\n      dup4\n        /* \"#utility.yul\":995:1012   */\n      add\n        /* \"#utility.yul\":982:1036   */\n      calldatacopy\n        /* \"#utility.yul\":1080:1081   */\n      0x00\n        /* \"#utility.yul\":1073:1077   */\n      0x20\n        /* \"#utility.yul\":1068:1070   */\n      dup6\n        /* \"#utility.yul\":1060:1066   */\n      dup4\n        /* \"#utility.yul\":1056:1071   */\n      add\n        /* \"#utility.yul\":1052:1078   */\n      add\n        /* \"#utility.yul\":1045:1082   */\n      mstore\n        /* \"#utility.yul\":1100:1106   */\n      dup1\n        /* \"#utility.yul\":1091:1106   */\n      swap5\n      pop\n      pop\n      pop\n      pop\n      pop\n        /* \"#utility.yul\":393:1112   */\n      swap3\n      swap2\n      pop\n      pop\n      jump\t// out\n        /* \"#utility.yul\":1117:1860   */\n    tag_15:\n        /* \"#utility.yul\":1224:1230   */\n      0x00\n        /* \"#utility.yul\":1232:1238   */\n      dup1\n        /* \"#utility.yul\":1240:1246   */\n      0x00\n        /* \"#utility.yul\":1293:1295   */\n      0x60\n        /* \"#utility.yul\":1281:1290   */\n      dup5\n        /* \"#utility.yul\":1272:1279   */\n      dup7\n        /* \"#utility.yul\":1268:1291   */\n      sub\n        /* \"#utility.yul\":1264:1296   */\n      slt\n        /* \"#utility.yul\":1261:1313   */\n      iszero\n      tag_97\n      jumpi\n        /* \"#utility.yul\":1309:1310   */\n      0x00\n        /* \"#utility.yul\":1306:1307   */\n      dup1\n        /* \"#utility.yul\":1299:1311   */\n      revert\n        /* \"#utility.yul\":1261:1313   */\n    tag_97:\n        /* \"#utility.yul\":1349:1358   */\n      dup4\n        /* \"#utility.yul\":1336:1359   */\n      calldataload\n        /* \"#utility.yul\":1378:1396   */\n      0xffffffffffffffff\n        /* \"#utility.yul\":1419:1421   */\n      dup1\n        /* \"#utility.yul\":1411:1417   */\n      dup3\n        /* \"#utility.yul\":1408:1422   */\n      gt\n        /* \"#utility.yul\":1405:1439   */\n      iszero\n      tag_98\n      jumpi\n        /* \"#utility.yul\":1435:1436   */\n      0x00\n        /* \"#utility.yul\":1432:1433   */\n      dup1\n        /* \"#utility.yul\":1425:1437   */\n      revert\n        /* \"#utility.yul\":1405:1439   */\n    tag_98:\n        /* \"#utility.yul\":1458:1508   */\n      tag_99\n        /* \"#utility.yul\":1500:1507   */\n      dup8\n        /* \"#utility.yul\":1491:1497   */\n      dup4\n        /* \"#utility.yul\":1480:1489   */\n      dup9\n        /* \"#utility.yul\":1476:1498   */\n      add\n        /* \"#utility.yul\":1458:1508   */\n      tag_84\n      jump\t// in\n    tag_99:\n        /* \"#utility.yul\":1448:1508   */\n      swap5\n      pop\n        /* \"#utility.yul\":1561:1563   */\n      0x20\n        /* \"#utility.yul\":1550:1559   */\n      dup7\n        /* \"#utility.yul\":1546:1564   */\n      add\n        /* \"#utility.yul\":1533:1565   */\n      calldataload\n        /* \"#utility.yul\":1517:1565   */\n      swap2\n      pop\n        /* \"#utility.yul\":1590:1592   */\n      dup1\n        /* \"#utility.yul\":1580:1588   */\n      dup3\n        /* \"#utility.yul\":1577:1593   */\n      gt\n        /* \"#utility.yul\":1574:1610   */\n      iszero\n      tag_100\n      jumpi\n        /* \"#utility.yul\":1606:1607   */\n      0x00\n        /* \"#utility.yul\":1603:1604   */\n      dup1\n        /* \"#utility.yul\":1596:1608   */\n      revert\n        /* \"#utility.yul\":1574:1610   */\n    tag_100:\n        /* \"#utility.yul\":1629:1681   */\n      tag_101\n        /* \"#utility.yul\":1673:1680   */\n      dup8\n        /* \"#utility.yul\":1662:1670   */\n      dup4\n        /* \"#utility.yul\":1651:1660   */\n      dup9\n        /* \"#utility.yul\":1647:1671   */\n      add\n        /* \"#utility.yul\":1629:1681   */\n      tag_84\n      jump\t// in\n    tag_101:\n        /* \"#utility.yul\":1619:1681   */\n      swap4\n      pop\n        /* \"#utility.yul\":1734:1736   */\n      0x40\n        /* \"#utility.yul\":1723:1732   */\n      dup7\n        /* \"#utility.yul\":1719:1737   */\n      add\n        /* \"#utility.yul\":1706:1738   */\n      calldataload\n        /* \"#utility.yul\":1690:1738   */\n      swap2\n      pop\n        /* \"#utility.yul\":1763:1765   */\n      dup1\n        /* \"#utility.yul\":1753:1761   */\n      dup3\n        /* \"#utility.yul\":1750:1766   */\n      gt\n        /* \"#utility.yul\":1747:1783   */\n      iszero\n      tag_102\n      jumpi\n        /* \"#utility.yul\":1779:1780   */\n      0x00\n        /* \"#utility.yul\":1776:1777   */\n      dup1\n        /* \"#utility.yul\":1769:1781   */\n      revert\n        /* \"#utility.yul\":1747:1783   */\n    tag_102:\n      pop\n        /* \"#utility.yul\":1802:1854   */\n      tag_103\n        /* \"#utility.yul\":1846:1853   */\n      dup7\n        /* \"#utility.yul\":1835:1843   */\n      dup3\n        /* \"#utility.yul\":1824:1833   */\n      dup8\n        /* \"#utility.yul\":1820:1844   */\n      add\n        /* \"#utility.yul\":1802:1854   */\n      tag_84\n      jump\t// in\n    tag_103:\n        /* \"#utility.yul\":1792:1854   */\n      swap2\n      pop\n      pop\n        /* \"#utility.yul\":1117:1860   */\n      swap3\n      pop\n      swap3\n      pop\n      swap3\n      jump\t// out\n        /* \"#utility.yul\":1865:2337   */\n    tag_85:\n        /* \"#utility.yul\":1907:1910   */\n      0x00\n        /* \"#utility.yul\":1945:1950   */\n      dup2\n        /* \"#utility.yul\":1939:1951   */\n      mload\n        /* \"#utility.yul\":1972:1978   */\n      dup1\n        /* \"#utility.yul\":1967:1970   */\n      dup5\n        /* \"#utility.yul\":1960:1979   */\n      mstore\n        /* \"#utility.yul\":1997:1998   */\n      0x00\n        /* \"#utility.yul\":2007:2169   */\n    tag_105:\n        /* \"#utility.yul\":2021:2027   */\n      dup2\n        /* \"#utility.yul\":2018:2019   */\n      dup2\n        /* \"#utility.yul\":2015:2028   */\n      lt\n        /* \"#utility.yul\":2007:2169   */\n      iszero\n      tag_107\n      jumpi\n        /* \"#utility.yul\":2083:2087   */\n      0x20\n        /* \"#utility.yul\":2139:2152   */\n      dup2\n      dup6\n      add\n        /* \"#utility.yul\":2135:2157   */\n      dup2\n      add\n        /* \"#utility.yul\":2129:2158   */\n      mload\n        /* \"#utility.yul\":2111:2122   */\n      dup7\n      dup4\n      add\n        /* \"#utility.yul\":2107:2127   */\n      dup3\n      add\n        /* \"#utility.yul\":2100:2159   */\n      mstore\n        /* \"#utility.yul\":2036:2048   */\n      add\n        /* \"#utility.yul\":2007:2169   */\n      jump(tag_105)\n    tag_107:\n        /* \"#utility.yul\":2187:2193   */\n      dup2\n        /* \"#utility.yul\":2184:2185   */\n      dup2\n        /* \"#utility.yul\":2181:2194   */\n      gt\n        /* \"#utility.yul\":2178:2265   */\n      iszero\n      tag_108\n      jumpi\n        /* \"#utility.yul\":2253:2254   */\n      0x00\n        /* \"#utility.yul\":2246:2250   */\n      0x20\n        /* \"#utility.yul\":2237:2243   */\n      dup4\n        /* \"#utility.yul\":2232:2235   */\n      dup8\n        /* \"#utility.yul\":2228:2244   */\n      add\n        /* \"#utility.yul\":2224:2251   */\n      add\n        /* \"#utility.yul\":2217:2255   */\n      mstore\n        /* \"#utility.yul\":2178:2265   */\n    tag_108:\n      pop\n        /* \"#utility.yul\":2319:2321   */\n      0x1f\n        /* \"#utility.yul\":2298:2313   */\n      add\n      not(0x1f)\n        /* \"#utility.yul\":2294:2323   */\n      and\n        /* \"#utility.yul\":2285:2324   */\n      swap3\n      swap1\n      swap3\n      add\n        /* \"#utility.yul\":2326:2330   */\n      0x20\n        /* \"#utility.yul\":2281:2331   */\n      add\n      swap3\n        /* \"#utility.yul\":1865:2337   */\n      swap2\n      pop\n      pop\n      jump\t// out\n        /* \"#utility.yul\":2342:3932   */\n    tag_21:\n        /* \"#utility.yul\":2522:2526   */\n      0x00\n        /* \"#utility.yul\":2551:2553   */\n      0x20\n        /* \"#utility.yul\":2591:2593   */\n      dup1\n        /* \"#utility.yul\":2580:2589   */\n      dup4\n        /* \"#utility.yul\":2576:2594   */\n      add\n        /* \"#utility.yul\":2621:2623   */\n      dup2\n        /* \"#utility.yul\":2610:2619   */\n      dup5\n        /* \"#utility.yul\":2603:2624   */\n      mstore\n        /* \"#utility.yul\":2644:2650   */\n      dup1\n        /* \"#utility.yul\":2679:2685   */\n      dup6\n        /* \"#utility.yul\":2673:2686   */\n      mload\n        /* \"#utility.yul\":2710:2716   */\n      dup1\n        /* \"#utility.yul\":2702:2708   */\n      dup4\n        /* \"#utility.yul\":2695:2717   */\n      mstore\n        /* \"#utility.yul\":2736:2738   */\n      0x40\n        /* \"#utility.yul\":2726:2738   */\n      swap3\n      pop\n        /* \"#utility.yul\":2769:2771   */\n      dup3\n        /* \"#utility.yul\":2758:2767   */\n      dup7\n        /* \"#utility.yul\":2754:2772   */\n      add\n        /* \"#utility.yul\":2747:2772   */\n      swap2\n      pop\n        /* \"#utility.yul\":2831:2833   */\n      dup3\n        /* \"#utility.yul\":2821:2827   */\n      dup2\n        /* \"#utility.yul\":2818:2819   */\n      0x05\n        /* \"#utility.yul\":2814:2828   */\n      shl\n        /* \"#utility.yul\":2803:2812   */\n      dup8\n        /* \"#utility.yul\":2799:2829   */\n      add\n        /* \"#utility.yul\":2795:2834   */\n      add\n        /* \"#utility.yul\":2869:2871   */\n      dup5\n        /* \"#utility.yul\":2861:2867   */\n      dup9\n        /* \"#utility.yul\":2857:2872   */\n      add\n        /* \"#utility.yul\":2890:2891   */\n      0x00\n        /* \"#utility.yul\":2900:3903   */\n    tag_110:\n        /* \"#utility.yul\":2914:2920   */\n      dup4\n        /* \"#utility.yul\":2911:2912   */\n      dup2\n        /* \"#utility.yul\":2908:2921   */\n      lt\n        /* \"#utility.yul\":2900:3903   */\n      iszero\n      tag_112\n      jumpi\n        /* \"#utility.yul\":3007:3009   */\n      0x3f\n        /* \"#utility.yul\":3003:3010   */\n      not\n        /* \"#utility.yul\":2991:3000   */\n      dup10\n        /* \"#utility.yul\":2983:2989   */\n      dup5\n        /* \"#utility.yul\":2979:3001   */\n      sub\n        /* \"#utility.yul\":2975:3011   */\n      add\n        /* \"#utility.yul\":2970:2973   */\n      dup6\n        /* \"#utility.yul\":2963:3012   */\n      mstore\n        /* \"#utility.yul\":3041:3047   */\n      dup2\n        /* \"#utility.yul\":3035:3048   */\n      mload\n        /* \"#utility.yul\":3071:3075   */\n      0xa0\n        /* \"#utility.yul\":3109:3111   */\n      dup2\n        /* \"#utility.yul\":3103:3112   */\n      mload\n        /* \"#utility.yul\":3095:3101   */\n      dup6\n        /* \"#utility.yul\":3088:3113   */\n      mstore\n        /* \"#utility.yul\":3160:3162   */\n      dup9\n        /* \"#utility.yul\":3156:3158   */\n      dup3\n        /* \"#utility.yul\":3152:3163   */\n      add\n        /* \"#utility.yul\":3146:3164   */\n      mload\n        /* \"#utility.yul\":3201:3203   */\n      dup2\n        /* \"#utility.yul\":3196:3198   */\n      dup11\n        /* \"#utility.yul\":3188:3194   */\n      dup8\n        /* \"#utility.yul\":3184:3199   */\n      add\n        /* \"#utility.yul\":3177:3204   */\n      mstore\n        /* \"#utility.yul\":3231:3279   */\n      tag_113\n        /* \"#utility.yul\":3275:3277   */\n      dup3\n        /* \"#utility.yul\":3267:3273   */\n      dup8\n        /* \"#utility.yul\":3263:3278   */\n      add\n        /* \"#utility.yul\":3249:3261   */\n      dup3\n        /* \"#utility.yul\":3231:3279   */\n      tag_85\n      jump\t// in\n    tag_113:\n        /* \"#utility.yul\":3217:3279   */\n      swap2\n      pop\n      pop\n        /* \"#utility.yul\":3328:3330   */\n      dup8\n        /* \"#utility.yul\":3324:3326   */\n      dup3\n        /* \"#utility.yul\":3320:3331   */\n      add\n        /* \"#utility.yul\":3314:3332   */\n      mload\n        /* \"#utility.yul\":3381:3387   */\n      dup6\n        /* \"#utility.yul\":3373:3379   */\n      dup3\n        /* \"#utility.yul\":3369:3388   */\n      sub\n        /* \"#utility.yul\":3364:3366   */\n      dup10\n        /* \"#utility.yul\":3356:3362   */\n      dup8\n        /* \"#utility.yul\":3352:3367   */\n      add\n        /* \"#utility.yul\":3345:3389   */\n      mstore\n        /* \"#utility.yul\":3416:3457   */\n      tag_114\n        /* \"#utility.yul\":3450:3456   */\n      dup3\n        /* \"#utility.yul\":3434:3448   */\n      dup3\n        /* \"#utility.yul\":3416:3457   */\n      tag_85\n      jump\t// in\n    tag_114:\n        /* \"#utility.yul\":3402:3457   */\n      swap2\n      pop\n      pop\n        /* \"#utility.yul\":3480:3484   */\n      0x60\n        /* \"#utility.yul\":3533:3535   */\n      dup1\n        /* \"#utility.yul\":3529:3531   */\n      dup4\n        /* \"#utility.yul\":3525:3536   */\n      add\n        /* \"#utility.yul\":3519:3537   */\n      mload\n        /* \"#utility.yul\":3586:3592   */\n      dup7\n        /* \"#utility.yul\":3578:3584   */\n      dup4\n        /* \"#utility.yul\":3574:3593   */\n      sub\n        /* \"#utility.yul\":3569:3571   */\n      dup3\n        /* \"#utility.yul\":3561:3567   */\n      dup9\n        /* \"#utility.yul\":3557:3572   */\n      add\n        /* \"#utility.yul\":3550:3594   */\n      mstore\n        /* \"#utility.yul\":3621:3662   */\n      tag_115\n        /* \"#utility.yul\":3655:3661   */\n      dup4\n        /* \"#utility.yul\":3639:3653   */\n      dup3\n        /* \"#utility.yul\":3621:3662   */\n      tag_85\n      jump\t// in\n    tag_115:\n        /* \"#utility.yul\":3685:3689   */\n      0x80\n        /* \"#utility.yul\":3736:3747   */\n      swap5\n      dup6\n      add\n        /* \"#utility.yul\":3730:3748   */\n      mload\n      sub(shl(0xa0, 0x01), 0x01)\n        /* \"#utility.yul\":3726:3793   */\n      and\n        /* \"#utility.yul\":3709:3724   */\n      swap8\n      swap1\n      swap5\n      add\n        /* \"#utility.yul\":3702:3794   */\n      swap7\n      swap1\n      swap7\n      mstore\n      pop\n      pop\n        /* \"#utility.yul\":3881:3893   */\n      swap5\n      dup8\n      add\n      swap5\n        /* \"#utility.yul\":3607:3662   */\n      swap3\n      pop\n        /* \"#utility.yul\":3846:3861   */\n      swap1\n      dup7\n      add\n      swap1\n        /* \"#utility.yul\":2936:2937   */\n      0x01\n        /* \"#utility.yul\":2929:2938   */\n      add\n        /* \"#utility.yul\":2900:3903   */\n      jump(tag_110)\n    tag_112:\n      pop\n        /* \"#utility.yul\":3920:3926   */\n      swap1\n      swap9\n        /* \"#utility.yul\":2342:3932   */\n      swap8\n      pop\n      pop\n      pop\n      pop\n      pop\n      pop\n      pop\n      pop\n      jump\t// out\n        /* \"#utility.yul\":4527:4752   */\n    tag_36:\n        /* \"#utility.yul\":4567:4570   */\n      0x00\n        /* \"#utility.yul\":4598:4599   */\n      dup3\n        /* \"#utility.yul\":4594:4600   */\n      not\n        /* \"#utility.yul\":4591:4592   */\n      dup3\n        /* \"#utility.yul\":4588:4601   */\n      gt\n        /* \"#utility.yul\":4585:4721   */\n      iszero\n      tag_119\n      jumpi\n        /* \"#utility.yul\":4643:4653   */\n      0x4e487b71\n        /* \"#utility.yul\":4638:4641   */\n      0xe0\n        /* \"#utility.yul\":4634:4654   */\n      shl\n        /* \"#utility.yul\":4631:4632   */\n      0x00\n        /* \"#utility.yul\":4624:4655   */\n      mstore\n        /* \"#utility.yul\":4678:4682   */\n      0x11\n        /* \"#utility.yul\":4675:4676   */\n      0x04\n        /* \"#utility.yul\":4668:4683   */\n      mstore\n        /* \"#utility.yul\":4706:4710   */\n      0x24\n        /* \"#utility.yul\":4703:4704   */\n      0x00\n        /* \"#utility.yul\":4696:4711   */\n      revert\n        /* \"#utility.yul\":4585:4721   */\n    tag_119:\n      pop\n        /* \"#utility.yul\":4737:4746   */\n      add\n      swap1\n        /* \"#utility.yul\":4527:4752   */\n      jump\t// out\n        /* \"#utility.yul\":5317:5936   */\n    tag_51:\n        /* \"#utility.yul\":5590:5596   */\n      dup5\n        /* \"#utility.yul\":5579:5588   */\n      dup2\n        /* \"#utility.yul\":5572:5597   */\n      mstore\n        /* \"#utility.yul\":5633:5636   */\n      0x80\n        /* \"#utility.yul\":5628:5630   */\n      0x20\n        /* \"#utility.yul\":5617:5626   */\n      dup3\n        /* \"#utility.yul\":5613:5631   */\n      add\n        /* \"#utility.yul\":5606:5637   */\n      mstore\n        /* \"#utility.yul\":5553:5557   */\n      0x00\n        /* \"#utility.yul\":5660:5706   */\n      tag_123\n        /* \"#utility.yul\":5701:5704   */\n      0x80\n        /* \"#utility.yul\":5690:5699   */\n      dup4\n        /* \"#utility.yul\":5686:5705   */\n      add\n        /* \"#utility.yul\":5678:5684   */\n      dup7\n        /* \"#utility.yul\":5660:5706   */\n      tag_85\n      jump\t// in\n    tag_123:\n        /* \"#utility.yul\":5754:5763   */\n      dup3\n        /* \"#utility.yul\":5746:5752   */\n      dup2\n        /* \"#utility.yul\":5742:5764   */\n      sub\n        /* \"#utility.yul\":5737:5739   */\n      0x40\n        /* \"#utility.yul\":5726:5735   */\n      dup5\n        /* \"#utility.yul\":5722:5740   */\n      add\n        /* \"#utility.yul\":5715:5765   */\n      mstore\n        /* \"#utility.yul\":5788:5821   */\n      tag_124\n        /* \"#utility.yul\":5814:5820   */\n      dup2\n        /* \"#utility.yul\":5806:5812   */\n      dup7\n        /* \"#utility.yul\":5788:5821   */\n      tag_85\n      jump\t// in\n    tag_124:\n        /* \"#utility.yul\":5774:5821   */\n      swap1\n      pop\n        /* \"#utility.yul\":5869:5878   */\n      dup3\n        /* \"#utility.yul\":5861:5867   */\n      dup2\n        /* \"#utility.yul\":5857:5879   */\n      sub\n        /* \"#utility.yul\":5852:5854   */\n      0x60\n        /* \"#utility.yul\":5841:5850   */\n      dup5\n        /* \"#utility.yul\":5837:5855   */\n      add\n        /* \"#utility.yul\":5830:5880   */\n      mstore\n        /* \"#utility.yul\":5897:5930   */\n      tag_125\n        /* \"#utility.yul\":5923:5929   */\n      dup2\n        /* \"#utility.yul\":5915:5921   */\n      dup6\n        /* \"#utility.yul\":5897:5930   */\n      tag_85\n      jump\t// in\n    tag_125:\n        /* \"#utility.yul\":5889:5930   */\n      swap8\n        /* \"#utility.yul\":5317:5936   */\n      swap7\n      pop\n      pop\n      pop\n      pop\n      pop\n      pop\n      pop\n      jump\t// out\n        /* \"#utility.yul\":5941:6321   */\n    tag_57:\n        /* \"#utility.yul\":6020:6021   */\n      0x01\n        /* \"#utility.yul\":6016:6028   */\n      dup2\n      dup2\n      shr\n      swap1\n        /* \"#utility.yul\":6063:6075   */\n      dup3\n      and\n      dup1\n        /* \"#utility.yul\":6084:6145   */\n      tag_127\n      jumpi\n        /* \"#utility.yul\":6138:6142   */\n      0x7f\n        /* \"#utility.yul\":6130:6136   */\n      dup3\n        /* \"#utility.yul\":6126:6143   */\n      and\n        /* \"#utility.yul\":6116:6143   */\n      swap2\n      pop\n        /* \"#utility.yul\":6084:6145   */\n    tag_127:\n        /* \"#utility.yul\":6191:6193   */\n      0x20\n        /* \"#utility.yul\":6183:6189   */\n      dup3\n        /* \"#utility.yul\":6180:6194   */\n      lt\n        /* \"#utility.yul\":6160:6178   */\n      dup2\n        /* \"#utility.yul\":6157:6195   */\n      sub\n        /* \"#utility.yul\":6154:6315   */\n      tag_128\n      jumpi\n        /* \"#utility.yul\":6237:6247   */\n      0x4e487b71\n        /* \"#utility.yul\":6232:6235   */\n      0xe0\n        /* \"#utility.yul\":6228:6248   */\n      shl\n        /* \"#utility.yul\":6225:6226   */\n      0x00\n        /* \"#utility.yul\":6218:6249   */\n      mstore\n        /* \"#utility.yul\":6272:6276   */\n      0x22\n        /* \"#utility.yul\":6269:6270   */\n      0x04\n        /* \"#utility.yul\":6262:6277   */\n      mstore\n        /* \"#utility.yul\":6300:6304   */\n      0x24\n        /* \"#utility.yul\":6297:6298   */\n      0x00\n        /* \"#utility.yul\":6290:6305   */\n      revert\n        /* \"#utility.yul\":6154:6315   */\n    tag_128:\n      pop\n        /* \"#utility.yul\":5941:6321   */\n      swap2\n      swap1\n      pop\n      jump\t// out\n\n    auxdata: 0xa26469706673582212207ca11cda81cf806c90b2832b4ef282ef64ed54e1819cbc8fc0f8cc7acca15a8c64736f6c634300080d0033\n}\n",
    "bytecode": {
      "linkReferences": {},
      "object": "6080604052600180546001600160a01b03191633179055610987806100256000396000f3fe60806040526004361061005a5760003560e01c8063ae61370511610043578063ae613705146100b1578063c356d568146100d3578063f65bcfd6146100f257600080fd5b80638da5cb5b1461005f57806397b116aa1461009c575b600080fd5b34801561006b57600080fd5b5060015461007f906001600160a01b031681565b6040516001600160a01b0390911681526020015b60405180910390f35b6100af6100aa366004610712565b610108565b005b3480156100bd57600080fd5b506100c66103a1565b60405161009391906107e7565b3480156100df57600080fd5b506000545b604051908152602001610093565b3480156100fe57600080fd5b506100e460005481565b346509184e72a000146101885760405162461bcd60e51b815260206004820152602760248201527f596f75206861766520746f2070617920302e303120657468657220746f20706c60448201527f616365206164640000000000000000000000000000000000000000000000000060648201526084015b60405180910390fd5b600160008082825461019a91906108a7565b90915550506040805160a08101825242815260208082018581529282018690526060820184905233608083015260028054600181018255600091909152825160059091027f405787fa12a823e0f2b7631cc41b3ba8828b3321ca811111fa75cd3aa3bb5ace8101918255935180519394919361023f937f405787fa12a823e0f2b7631cc41b3ba8828b3321ca811111fa75cd3aa3bb5acf9093019291909101906105d6565b506040820151805161025b9160028401916020909101906105d6565b50606082015180516102779160038401916020909101906105d6565b5060809190910151600490910180547fffffffffffffffffffffffff0000000000000000000000000000000000000000166001600160a01b03928316179055600154604051600092919091169034908381818185875af1925050503d80600081146102fe576040519150601f19603f3d011682016040523d82523d6000602084013e610303565b606091505b50509050806103545760405162461bcd60e51b815260206004820152601560248201527f4661696c656420746f2070617920666f72206164640000000000000000000000604482015260640161017f565b336001600160a01b03167fc1b504acc91ef26c45194965a61ec574decd67e5ef7826d718f190ded3a199214286868660405161039394939291906108cd565b60405180910390a250505050565b60606002805480602002602001604051908101604052809291908181526020016000905b828210156105cd57838290600052602060002090600502016040518060a00160405290816000820154815260200160018201805461040290610917565b80601f016020809104026020016040519081016040528092919081815260200182805461042e90610917565b801561047b5780601f106104505761010080835404028352916020019161047b565b820191906000526020600020905b81548152906001019060200180831161045e57829003601f168201915b5050505050815260200160028201805461049490610917565b80601f01602080910402602001604051908101604052809291908181526020018280546104c090610917565b801561050d5780601f106104e25761010080835404028352916020019161050d565b820191906000526020600020905b8154815290600101906020018083116104f057829003601f168201915b5050505050815260200160038201805461052690610917565b80601f016020809104026020016040519081016040528092919081815260200182805461055290610917565b801561059f5780601f106105745761010080835404028352916020019161059f565b820191906000526020600020905b81548152906001019060200180831161058257829003601f168201915b5050509183525050600491909101546001600160a01b031660209182015290825260019290920191016103c5565b50505050905090565b8280546105e290610917565b90600052602060002090601f016020900481019282610604576000855561064a565b82601f1061061d57805160ff191683800117855561064a565b8280016001018555821561064a579182015b8281111561064a57825182559160200191906001019061062f565b5061065692915061065a565b5090565b5b80821115610656576000815560010161065b565b634e487b7160e01b600052604160045260246000fd5b600082601f83011261069657600080fd5b813567ffffffffffffffff808211156106b1576106b161066f565b604051601f8301601f19908116603f011681019082821181831017156106d9576106d961066f565b816040528381528660208588010111156106f257600080fd5b836020870160208301376000602085830101528094505050505092915050565b60008060006060848603121561072757600080fd5b833567ffffffffffffffff8082111561073f57600080fd5b61074b87838801610685565b9450602086013591508082111561076157600080fd5b61076d87838801610685565b9350604086013591508082111561078357600080fd5b5061079086828701610685565b9150509250925092565b6000815180845260005b818110156107c0576020818501810151868301820152016107a4565b818111156107d2576000602083870101525b50601f01601f19169290920160200192915050565b60006020808301818452808551808352604092508286019150828160051b87010184880160005b8381101561089957603f19898403018552815160a08151855288820151818a87015261083c8287018261079a565b9150508782015185820389870152610854828261079a565b9150506060808301518683038288015261086e838261079a565b6080948501516001600160a01b0316979094019690965250509487019492509086019060010161080e565b509098975050505050505050565b600082198211156108c857634e487b7160e01b600052601160045260246000fd5b500190565b8481526080602082015260006108e6608083018661079a565b82810360408401526108f8818661079a565b9050828103606084015261090c818561079a565b979650505050505050565b600181811c9082168061092b57607f821691505b60208210810361094b57634e487b7160e01b600052602260045260246000fd5b5091905056fea26469706673582212207ca11cda81cf806c90b2832b4ef282ef64ed54e1819cbc8fc0f8cc7acca15a8c64736f6c634300080d0033",
      "opcodes": "PUSH1 0x80 PUSH1 0x40 MSTORE PUSH1 0x1 DUP1 SLOAD PUSH1 0x1 PUSH1 0x1 PUSH1 0xA0 SHL SUB NOT AND CALLER OR SWAP1 SSTORE PUSH2 0x987 DUP1 PUSH2 0x25 PUSH1 0x0 CODECOPY PUSH1 0x0 RETURN INVALID PUSH1 0x80 PUSH1 0x40 MSTORE PUSH1 0x4 CALLDATASIZE LT PUSH2 0x5A JUMPI PUSH1 0x0 CALLDATALOAD PUSH1 0xE0 SHR DUP1 PUSH4 0xAE613705 GT PUSH2 0x43 JUMPI DUP1 PUSH4 0xAE613705 EQ PUSH2 0xB1 JUMPI DUP1 PUSH4 0xC356D568 EQ PUSH2 0xD3 JUMPI DUP1 PUSH4 0xF65BCFD6 EQ PUSH2 0xF2 JUMPI PUSH1 0x0 DUP1 REVERT JUMPDEST DUP1 PUSH4 0x8DA5CB5B EQ PUSH2 0x5F JUMPI DUP1 PUSH4 0x97B116AA EQ PUSH2 0x9C JUMPI JUMPDEST PUSH1 0x0 DUP1 REVERT JUMPDEST CALLVALUE DUP1 ISZERO PUSH2 0x6B JUMPI PUSH1 0x0 DUP1 REVERT JUMPDEST POP PUSH1 0x1 SLOAD PUSH2 0x7F SWAP1 PUSH1 0x1 PUSH1 0x1 PUSH1 0xA0 SHL SUB AND DUP2 JUMP JUMPDEST PUSH1 0x40 MLOAD PUSH1 0x1 PUSH1 0x1 PUSH1 0xA0 SHL SUB SWAP1 SWAP2 AND DUP2 MSTORE PUSH1 0x20 ADD JUMPDEST PUSH1 0x40 MLOAD DUP1 SWAP2 SUB SWAP1 RETURN JUMPDEST PUSH2 0xAF PUSH2 0xAA CALLDATASIZE PUSH1 0x4 PUSH2 0x712 JUMP JUMPDEST PUSH2 0x108 JUMP JUMPDEST STOP JUMPDEST CALLVALUE DUP1 ISZERO PUSH2 0xBD JUMPI PUSH1 0x0 DUP1 REVERT JUMPDEST POP PUSH2 0xC6 PUSH2 0x3A1 JUMP JUMPDEST PUSH1 0x40 MLOAD PUSH2 0x93 SWAP2 SWAP1 PUSH2 0x7E7 JUMP JUMPDEST CALLVALUE DUP1 ISZERO PUSH2 0xDF JUMPI PUSH1 0x0 DUP1 REVERT JUMPDEST POP PUSH1 0x0 SLOAD JUMPDEST PUSH1 0x40 MLOAD SWAP1 DUP2 MSTORE PUSH1 0x20 ADD PUSH2 0x93 JUMP JUMPDEST CALLVALUE DUP1 ISZERO PUSH2 0xFE JUMPI PUSH1 0x0 DUP1 REVERT JUMPDEST POP PUSH2 0xE4 PUSH1 0x0 SLOAD DUP2 JUMP JUMPDEST CALLVALUE PUSH6 0x9184E72A000 EQ PUSH2 0x188 JUMPI PUSH1 0x40 MLOAD PUSH3 0x461BCD PUSH1 0xE5 SHL DUP2 MSTORE PUSH1 0x20 PUSH1 0x4 DUP3 ADD MSTORE PUSH1 0x27 PUSH1 0x24 DUP3 ADD MSTORE PUSH32 0x596F75206861766520746F2070617920302E303120657468657220746F20706C PUSH1 0x44 DUP3 ADD MSTORE PUSH32 0x6163652061646400000000000000000000000000000000000000000000000000 PUSH1 0x64 DUP3 ADD MSTORE PUSH1 0x84 ADD JUMPDEST PUSH1 0x40 MLOAD DUP1 SWAP2 SUB SWAP1 REVERT JUMPDEST PUSH1 0x1 PUSH1 0x0 DUP1 DUP3 DUP3 SLOAD PUSH2 0x19A SWAP2 SWAP1 PUSH2 0x8A7 JUMP JUMPDEST SWAP1 SWAP2 SSTORE POP POP PUSH1 0x40 DUP1 MLOAD PUSH1 0xA0 DUP2 ADD DUP3 MSTORE TIMESTAMP DUP2 MSTORE PUSH1 0x20 DUP1 DUP3 ADD DUP6 DUP2 MSTORE SWAP3 DUP3 ADD DUP7 SWAP1 MSTORE PUSH1 0x60 DUP3 ADD DUP5 SWAP1 MSTORE CALLER PUSH1 0x80 DUP4 ADD MSTORE PUSH1 0x2 DUP1 SLOAD PUSH1 0x1 DUP2 ADD DUP3 SSTORE PUSH1 0x0 SWAP2 SWAP1 SWAP2 MSTORE DUP3 MLOAD PUSH1 0x5 SWAP1 SWAP2 MUL PUSH32 0x405787FA12A823E0F2B7631CC41B3BA8828B3321CA811111FA75CD3AA3BB5ACE DUP2 ADD SWAP2 DUP3 SSTORE SWAP4 MLOAD DUP1 MLOAD SWAP4 SWAP5 SWAP2 SWAP4 PUSH2 0x23F SWAP4 PUSH32 0x405787FA12A823E0F2B7631CC41B3BA8828B3321CA811111FA75CD3AA3BB5ACF SWAP1 SWAP4 ADD SWAP3 SWAP2 SWAP1 SWAP2 ADD SWAP1 PUSH2 0x5D6 JUMP JUMPDEST POP PUSH1 0x40 DUP3 ADD MLOAD DUP1 MLOAD PUSH2 0x25B SWAP2 PUSH1 0x2 DUP5 ADD SWAP2 PUSH1 0x20 SWAP1 SWAP2 ADD SWAP1 PUSH2 0x5D6 JUMP JUMPDEST POP PUSH1 0x60 DUP3 ADD MLOAD DUP1 MLOAD PUSH2 0x277 SWAP2 PUSH1 0x3 DUP5 ADD SWAP2 PUSH1 0x20 SWAP1 SWAP2 ADD SWAP1 PUSH2 0x5D6 JUMP JUMPDEST POP PUSH1 0x80 SWAP2 SWAP1 SWAP2 ADD MLOAD PUSH1 0x4 SWAP1 SWAP2 ADD DUP1 SLOAD PUSH32 0xFFFFFFFFFFFFFFFFFFFFFFFF0000000000000000000000000000000000000000 AND PUSH1 0x1 PUSH1 0x1 PUSH1 0xA0 SHL SUB SWAP3 DUP4 AND OR SWAP1 SSTORE PUSH1 0x1 SLOAD PUSH1 0x40 MLOAD PUSH1 0x0 SWAP3 SWAP2 SWAP1 SWAP2 AND SWAP1 CALLVALUE SWAP1 DUP4 DUP2 DUP2 DUP2 DUP6 DUP8 GAS CALL SWAP3 POP POP POP RETURNDATASIZE DUP1 PUSH1 0x0 DUP2 EQ PUSH2 0x2FE JUMPI PUSH1 0x40 MLOAD SWAP2 POP PUSH1 0x1F NOT PUSH1 0x3F RETURNDATASIZE ADD AND DUP3 ADD PUSH1 0x40 MSTORE RETURNDATASIZE DUP3 MSTORE RETURNDATASIZE PUSH1 0x0 PUSH1 0x20 DUP5 ADD RETURNDATACOPY PUSH2 0x303 JUMP JUMPDEST PUSH1 0x60 SWAP2 POP JUMPDEST POP POP SWAP1 POP DUP1 PUSH2 0x354 JUMPI PUSH1 0x40 MLOAD PUSH3 0x461BCD PUSH1 0xE5 SHL DUP2 MSTORE PUSH1 0x20 PUSH1 0x4 DUP3 ADD MSTORE PUSH1 0x15 PUSH1 0x24 DUP3 ADD MSTORE PUSH32 0x4661696C656420746F2070617920666F72206164640000000000000000000000 PUSH1 0x44 DUP3 ADD MSTORE PUSH1 0x64 ADD PUSH2 0x17F JUMP JUMPDEST CALLER PUSH1 0x1 PUSH1 0x1 PUSH1 0xA0 SHL SUB AND PUSH32 0xC1B504ACC91EF26C45194965A61EC574DECD67E5EF7826D718F190DED3A19921 TIMESTAMP DUP7 DUP7 DUP7 PUSH1 0x40 MLOAD PUSH2 0x393 SWAP5 SWAP4 SWAP3 SWAP2 SWAP1 PUSH2 0x8CD JUMP JUMPDEST PUSH1 0x40 MLOAD DUP1 SWAP2 SUB SWAP1 LOG2 POP POP POP POP JUMP JUMPDEST PUSH1 0x60 PUSH1 0x2 DUP1 SLOAD DUP1 PUSH1 0x20 MUL PUSH1 0x20 ADD PUSH1 0x40 MLOAD SWAP1 DUP2 ADD PUSH1 0x40 MSTORE DUP1 SWAP3 SWAP2 SWAP1 DUP2 DUP2 MSTORE PUSH1 0x20 ADD PUSH1 0x0 SWAP1 JUMPDEST DUP3 DUP3 LT ISZERO PUSH2 0x5CD JUMPI DUP4 DUP3 SWAP1 PUSH1 0x0 MSTORE PUSH1 0x20 PUSH1 0x0 KECCAK256 SWAP1 PUSH1 0x5 MUL ADD PUSH1 0x40 MLOAD DUP1 PUSH1 0xA0 ADD PUSH1 0x40 MSTORE SWAP1 DUP2 PUSH1 0x0 DUP3 ADD SLOAD DUP2 MSTORE PUSH1 0x20 ADD PUSH1 0x1 DUP3 ADD DUP1 SLOAD PUSH2 0x402 SWAP1 PUSH2 0x917 JUMP JUMPDEST DUP1 PUSH1 0x1F ADD PUSH1 0x20 DUP1 SWAP2 DIV MUL PUSH1 0x20 ADD PUSH1 0x40 MLOAD SWAP1 DUP2 ADD PUSH1 0x40 MSTORE DUP1 SWAP3 SWAP2 SWAP1 DUP2 DUP2 MSTORE PUSH1 0x20 ADD DUP3 DUP1 SLOAD PUSH2 0x42E SWAP1 PUSH2 0x917 JUMP JUMPDEST DUP1 ISZERO PUSH2 0x47B JUMPI DUP1 PUSH1 0x1F LT PUSH2 0x450 JUMPI PUSH2 0x100 DUP1 DUP4 SLOAD DIV MUL DUP4 MSTORE SWAP2 PUSH1 0x20 ADD SWAP2 PUSH2 0x47B JUMP JUMPDEST DUP3 ADD SWAP2 SWAP1 PUSH1 0x0 MSTORE PUSH1 0x20 PUSH1 0x0 KECCAK256 SWAP1 JUMPDEST DUP2 SLOAD DUP2 MSTORE SWAP1 PUSH1 0x1 ADD SWAP1 PUSH1 0x20 ADD DUP1 DUP4 GT PUSH2 0x45E JUMPI DUP3 SWAP1 SUB PUSH1 0x1F AND DUP3 ADD SWAP2 JUMPDEST POP POP POP POP POP DUP2 MSTORE PUSH1 0x20 ADD PUSH1 0x2 DUP3 ADD DUP1 SLOAD PUSH2 0x494 SWAP1 PUSH2 0x917 JUMP JUMPDEST DUP1 PUSH1 0x1F ADD PUSH1 0x20 DUP1 SWAP2 DIV MUL PUSH1 0x20 ADD PUSH1 0x40 MLOAD SWAP1 DUP2 ADD PUSH1 0x40 MSTORE DUP1 SWAP3 SWAP2 SWAP1 DUP2 DUP2 MSTORE PUSH1 0x20 ADD DUP3 DUP1 SLOAD PUSH2 0x4C0 SWAP1 PUSH2 0x917 JUMP JUMPDEST DUP1 ISZERO PUSH2 0x50D JUMPI DUP1 PUSH1 0x1F LT PUSH2 0x4E2 JUMPI PUSH2 0x100 DUP1 DUP4 SLOAD DIV MUL DUP4 MSTORE SWAP2 PUSH1 0x20 ADD SWAP2 PUSH2 0x50D JUMP JUMPDEST DUP3 ADD SWAP2 SWAP1 PUSH1 0x0 MSTORE PUSH1 0x20 PUSH1 0x0 KECCAK256 SWAP1 JUMPDEST DUP2 SLOAD DUP2 MSTORE SWAP1 PUSH1 0x1 ADD SWAP1 PUSH1 0x20 ADD DUP1 DUP4 GT PUSH2 0x4F0 JUMPI DUP3 SWAP1 SUB PUSH1 0x1F AND DUP3 ADD SWAP2 JUMPDEST POP POP POP POP POP DUP2 MSTORE PUSH1 0x20 ADD PUSH1 0x3 DUP3 ADD DUP1 SLOAD PUSH2 0x526 SWAP1 PUSH2 0x917 JUMP JUMPDEST DUP1 PUSH1 0x1F ADD PUSH1 0x20 DUP1 SWAP2 DIV MUL PUSH1 0x20 ADD PUSH1 0x40 MLOAD SWAP1 DUP2 ADD PUSH1 0x40 MSTORE DUP1 SWAP3 SWAP2 SWAP1 DUP2 DUP2 MSTORE PUSH1 0x20 ADD DUP3 DUP1 SLOAD PUSH2 0x552 SWAP1 PUSH2 0x917 JUMP JUMPDEST DUP1 ISZERO PUSH2 0x59F JUMPI DUP1 PUSH1 0x1F LT PUSH2 0x574 JUMPI PUSH2 0x100 DUP1 DUP4 SLOAD DIV MUL DUP4 MSTORE SWAP2 PUSH1 0x20 ADD SWAP2 PUSH2 0x59F JUMP JUMPDEST DUP3 ADD SWAP2 SWAP1 PUSH1 0x0 MSTORE PUSH1 0x20 PUSH1 0x0 KECCAK256 SWAP1 JUMPDEST DUP2 SLOAD DUP2 MSTORE SWAP1 PUSH1 0x1 ADD SWAP1 PUSH1 0x20 ADD DUP1 DUP4 GT PUSH2 0x582 JUMPI DUP3 SWAP1 SUB PUSH1 0x1F AND DUP3 ADD SWAP2 JUMPDEST POP POP POP SWAP2 DUP4 MSTORE POP POP PUSH1 0x4 SWAP2 SWAP1 SWAP2 ADD SLOAD PUSH1 0x1 PUSH1 0x1 PUSH1 0xA0 SHL SUB AND PUSH1 0x20 SWAP2 DUP3 ADD MSTORE SWAP1 DUP3 MSTORE PUSH1 0x1 SWAP3 SWAP1 SWAP3 ADD SWAP2 ADD PUSH2 0x3C5 JUMP JUMPDEST POP POP POP POP SWAP1 POP SWAP1 JUMP JUMPDEST DUP3 DUP1 SLOAD PUSH2 0x5E2 SWAP1 PUSH2 0x917 JUMP JUMPDEST SWAP1 PUSH1 0x0 MSTORE PUSH1 0x20 PUSH1 0x0 KECCAK256 SWAP1 PUSH1 0x1F ADD PUSH1 0x20 SWAP1 DIV DUP2 ADD SWAP3 DUP3 PUSH2 0x604 JUMPI PUSH1 0x0 DUP6 SSTORE PUSH2 0x64A JUMP JUMPDEST DUP3 PUSH1 0x1F LT PUSH2 0x61D JUMPI DUP1 MLOAD PUSH1 0xFF NOT AND DUP4 DUP1 ADD OR DUP6 SSTORE PUSH2 0x64A JUMP JUMPDEST DUP3 DUP1 ADD PUSH1 0x1 ADD DUP6 SSTORE DUP3 ISZERO PUSH2 0x64A JUMPI SWAP2 DUP3 ADD JUMPDEST DUP3 DUP2 GT ISZERO PUSH2 0x64A JUMPI DUP3 MLOAD DUP3 SSTORE SWAP2 PUSH1 0x20 ADD SWAP2 SWAP1 PUSH1 0x1 ADD SWAP1 PUSH2 0x62F JUMP JUMPDEST POP PUSH2 0x656 SWAP3 SWAP2 POP PUSH2 0x65A JUMP JUMPDEST POP SWAP1 JUMP JUMPDEST JUMPDEST DUP1 DUP3 GT ISZERO PUSH2 0x656 JUMPI PUSH1 0x0 DUP2 SSTORE PUSH1 0x1 ADD PUSH2 0x65B JUMP JUMPDEST PUSH4 0x4E487B71 PUSH1 0xE0 SHL PUSH1 0x0 MSTORE PUSH1 0x41 PUSH1 0x4 MSTORE PUSH1 0x24 PUSH1 0x0 REVERT JUMPDEST PUSH1 0x0 DUP3 PUSH1 0x1F DUP4 ADD SLT PUSH2 0x696 JUMPI PUSH1 0x0 DUP1 REVERT JUMPDEST DUP2 CALLDATALOAD PUSH8 0xFFFFFFFFFFFFFFFF DUP1 DUP3 GT ISZERO PUSH2 0x6B1 JUMPI PUSH2 0x6B1 PUSH2 0x66F JUMP JUMPDEST PUSH1 0x40 MLOAD PUSH1 0x1F DUP4 ADD PUSH1 0x1F NOT SWAP1 DUP2 AND PUSH1 0x3F ADD AND DUP2 ADD SWAP1 DUP3 DUP3 GT DUP2 DUP4 LT OR ISZERO PUSH2 0x6D9 JUMPI PUSH2 0x6D9 PUSH2 0x66F JUMP JUMPDEST DUP2 PUSH1 0x40 MSTORE DUP4 DUP2 MSTORE DUP7 PUSH1 0x20 DUP6 DUP9 ADD ADD GT ISZERO PUSH2 0x6F2 JUMPI PUSH1 0x0 DUP1 REVERT JUMPDEST DUP4 PUSH1 0x20 DUP8 ADD PUSH1 0x20 DUP4 ADD CALLDATACOPY PUSH1 0x0 PUSH1 0x20 DUP6 DUP4 ADD ADD MSTORE DUP1 SWAP5 POP POP POP POP POP SWAP3 SWAP2 POP POP JUMP JUMPDEST PUSH1 0x0 DUP1 PUSH1 0x0 PUSH1 0x60 DUP5 DUP7 SUB SLT ISZERO PUSH2 0x727 JUMPI PUSH1 0x0 DUP1 REVERT JUMPDEST DUP4 CALLDATALOAD PUSH8 0xFFFFFFFFFFFFFFFF DUP1 DUP3 GT ISZERO PUSH2 0x73F JUMPI PUSH1 0x0 DUP1 REVERT JUMPDEST PUSH2 0x74B DUP8 DUP4 DUP9 ADD PUSH2 0x685 JUMP JUMPDEST SWAP5 POP PUSH1 0x20 DUP7 ADD CALLDATALOAD SWAP2 POP DUP1 DUP3 GT ISZERO PUSH2 0x761 JUMPI PUSH1 0x0 DUP1 REVERT JUMPDEST PUSH2 0x76D DUP8 DUP4 DUP9 ADD PUSH2 0x685 JUMP JUMPDEST SWAP4 POP PUSH1 0x40 DUP7 ADD CALLDATALOAD SWAP2 POP DUP1 DUP3 GT ISZERO PUSH2 0x783 JUMPI PUSH1 0x0 DUP1 REVERT JUMPDEST POP PUSH2 0x790 DUP7 DUP3 DUP8 ADD PUSH2 0x685 JUMP JUMPDEST SWAP2 POP POP SWAP3 POP SWAP3 POP SWAP3 JUMP JUMPDEST PUSH1 0x0 DUP2 MLOAD DUP1 DUP5 MSTORE PUSH1 0x0 JUMPDEST DUP2 DUP2 LT ISZERO PUSH2 0x7C0 JUMPI PUSH1 0x20 DUP2 DUP6 ADD DUP2 ADD MLOAD DUP7 DUP4 ADD DUP3 ADD MSTORE ADD PUSH2 0x7A4 JUMP JUMPDEST DUP2 DUP2 GT ISZERO PUSH2 0x7D2 JUMPI PUSH1 0x0 PUSH1 0x20 DUP4 DUP8 ADD ADD MSTORE JUMPDEST POP PUSH1 0x1F ADD PUSH1 0x1F NOT AND SWAP3 SWAP1 SWAP3 ADD PUSH1 0x20 ADD SWAP3 SWAP2 POP POP JUMP JUMPDEST PUSH1 0x0 PUSH1 0x20 DUP1 DUP4 ADD DUP2 DUP5 MSTORE DUP1 DUP6 MLOAD DUP1 DUP4 MSTORE PUSH1 0x40 SWAP3 POP DUP3 DUP7 ADD SWAP2 POP DUP3 DUP2 PUSH1 0x5 SHL DUP8 ADD ADD DUP5 DUP9 ADD PUSH1 0x0 JUMPDEST DUP4 DUP2 LT ISZERO PUSH2 0x899 JUMPI PUSH1 0x3F NOT DUP10 DUP5 SUB ADD DUP6 MSTORE DUP2 MLOAD PUSH1 0xA0 DUP2 MLOAD DUP6 MSTORE DUP9 DUP3 ADD MLOAD DUP2 DUP11 DUP8 ADD MSTORE PUSH2 0x83C DUP3 DUP8 ADD DUP3 PUSH2 0x79A JUMP JUMPDEST SWAP2 POP POP DUP8 DUP3 ADD MLOAD DUP6 DUP3 SUB DUP10 DUP8 ADD MSTORE PUSH2 0x854 DUP3 DUP3 PUSH2 0x79A JUMP JUMPDEST SWAP2 POP POP PUSH1 0x60 DUP1 DUP4 ADD MLOAD DUP7 DUP4 SUB DUP3 DUP9 ADD MSTORE PUSH2 0x86E DUP4 DUP3 PUSH2 0x79A JUMP JUMPDEST PUSH1 0x80 SWAP5 DUP6 ADD MLOAD PUSH1 0x1 PUSH1 0x1 PUSH1 0xA0 SHL SUB AND SWAP8 SWAP1 SWAP5 ADD SWAP7 SWAP1 SWAP7 MSTORE POP POP SWAP5 DUP8 ADD SWAP5 SWAP3 POP SWAP1 DUP7 ADD SWAP1 PUSH1 0x1 ADD PUSH2 0x80E JUMP JUMPDEST POP SWAP1 SWAP9 SWAP8 POP POP POP POP POP POP POP POP JUMP JUMPDEST PUSH1 0x0 DUP3 NOT DUP3 GT ISZERO PUSH2 0x8C8 JUMPI PUSH4 0x4E487B71 PUSH1 0xE0 SHL PUSH1 0x0 MSTORE PUSH1 0x11 PUSH1 0x4 MSTORE PUSH1 0x24 PUSH1 0x0 REVERT JUMPDEST POP ADD SWAP1 JUMP JUMPDEST DUP5 DUP2 MSTORE PUSH1 0x80 PUSH1 0x20 DUP3 ADD MSTORE PUSH1 0x0 PUSH2 0x8E6 PUSH1 0x80 DUP4 ADD DUP7 PUSH2 0x79A JUMP JUMPDEST DUP3 DUP2 SUB PUSH1 0x40 DUP5 ADD MSTORE PUSH2 0x8F8 DUP2 DUP7 PUSH2 0x79A JUMP JUMPDEST SWAP1 POP DUP3 DUP2 SUB PUSH1 0x60 DUP5 ADD MSTORE PUSH2 0x90C DUP2 DUP6 PUSH2 0x79A JUMP JUMPDEST SWAP8 SWAP7 POP POP POP POP POP POP POP JUMP JUMPDEST PUSH1 0x1 DUP2 DUP2 SHR SWAP1 DUP3 AND DUP1 PUSH2 0x92B JUMPI PUSH1 0x7F DUP3 AND SWAP2 POP JUMPDEST PUSH1 0x20 DUP3 LT DUP2 SUB PUSH2 0x94B JUMPI PUSH4 0x4E487B71 PUSH1 0xE0 SHL PUSH1 0x0 MSTORE PUSH1 0x22 PUSH1 0x4 MSTORE PUSH1 0x24 PUSH1 0x0 REVERT JUMPDEST POP SWAP2 SWAP1 POP JUMP INVALID LOG2 PUSH5 0x6970667358 0x22 SLT KECCAK256 PUSH29 0xA11CDA81CF806C90B2832B4EF282EF64ED54E1819CBC8FC0F8CC7ACCA1 GAS DUP13 PUSH5 0x736F6C6343 STOP ADDMOD 0xD STOP CALLER "
    },
    "gasEstimates": {
      "creation": {
        "codeDepositCost": "487800",
        "executionCost": "24735",
        "totalCost": "512535"
      },
      "external": {
        "getAdds()": "infinite",
        "getTottalAdds()": "2303",
        "owner()": "2327",
        "placeAdd(string,string,string)": "infinite",
        "totalAds()": "2339"
      }
    },
    "methodIdentifiers": {
      "getAdds()": "ae613705",
      "getTottalAdds()": "c356d568",
      "owner()": "8da5cb5b",
      "placeAdd(string,string,string)": "97b116aa",
      "totalAds()": "f65bcfd6"
    }
  },
  "storageLayout": {
    "storage": [
      {
        "astId": 3,
        "contract": "Contract.sol:MyContract",
        "label": "totalAds",
        "offset": 0,
        "slot": "0",
        "type": "t_uint256"
      },
      {
        "astId": 5,
        "contract": "Contract.sol:MyContract",
        "label": "owner",
        "offset": 0,
        "slot": "1",
        "type": "t_address_payable"
      },
      {
        "astId": 44,
        "contract": "Contract.sol:MyContract",
        "label": "adds",
        "offset": 0,
        "slot": "2",
        "type": "t_array(t_struct(Add)40_storage)dyn_storage"
      }
    ],
    "types": {
      "t_address": {
        "encoding": "inplace",
        "label": "address",
        "numberOfBytes": "20"
      },
      "t_address_payable": {
        "encoding": "inplace",
        "label": "address payable",
        "numberOfBytes": "20"
      },
      "t_array(t_struct(Add)40_storage)dyn_storage": {
        "base": "t_struct(Add)40_storage",
        "encoding": "dynamic_array",
        "label": "struct MyContract.Add[]",
        "numberOfBytes": "32"
      },
      "t_string_storage": {
        "encoding": "bytes",
        "label": "string",
        "numberOfBytes": "32"
      },
      "t_struct(Add)40_storage": {
        "encoding": "inplace",
        "label": "struct MyContract.Add",
        "members": [
          {
            "astId": 31,
            "contract": "Contract.sol:MyContract",
            "label": "timestamp",
            "offset": 0,
            "slot": "0",
            "type": "t_uint256"
          },
          {
            "astId": 33,
            "contract": "Contract.sol:MyContract",
            "label": "name",
            "offset": 0,
            "slot": "1",
            "type": "t_string_storage"
          },
          {
            "astId": 35,
            "contract": "Contract.sol:MyContract",
            "label": "message",
            "offset": 0,
            "slot": "2",
            "type": "t_string_storage"
          },
          {
            "astId": 37,
            "contract": "Contract.sol:MyContract",
            "label": "image",
            "offset": 0,
            "slot": "3",
            "type": "t_string_storage"
          },
          {
            "astId": 39,
            "contract": "Contract.sol:MyContract",
            "label": "sender",
            "offset": 0,
            "slot": "4",
            "type": "t_address"
          }
        ],
        "numberOfBytes": "160"
      },
      "t_uint256": {
        "encoding": "inplace",
        "label": "uint256",
        "numberOfBytes": "32"
      }
    }
  },
  "userdoc": {
    "kind": "user",
    "methods": {},
    "version": 1
  }
}